8=FIX.4.
2|9=58|35=0|49=BuySide|56=SellSide|34=4|52=20190605-12:19:52.060|10=165
8=FIX.4.2|9=68|35=0|34=5|49=SellSide|52=20241015-18:14|56=BuySide|10=188|8=FIX.4.
2|9=58|35=0|49=BuySide|56=SellSide|34=4|52=20190605-12:19:52.060|10=165
8=FIX.4.2|9=68|35=0|34=5|49=SellSide|52=20241015-18:14|56=BuySide|10=188|8=FIX.4.2|9=58|35=0|49=BuySide|56=SellSide|34=4|52=20190605-12:19:52.060|10=165
8=FIX.4.2|9=68|35=0|34=5|49=SellSide|52=20241015-18:14|56=BuySide|10=165|8=FIX.4.2|9=58|35=0|49=BuySide|56=SellSide|34=4|52=20190605-12:19:52.060|10=165
8=FIX.4.2|9=68|35=0|34=5|49=SellSide|52=20241015-18:14|56=BuySide|10=165|8=FIX.4.2|9=58|35=0|49=BuySide|56=SellSide|34=4|52=20190605-12:19:52.060|10=165
8=FIX.4.2|9=68|35=0|34=5|49=SellSide|52=20241015-18:55|56=BuySide|10=165|8=FIX.4.2|9=112|35=A|49=BuySide|56=SellSide|34=1|52=20241015-15:00:00|108=30|10=178|

8=FIX.4.2|9=75|35=A|34=2|49=SellSide|52=20241015-18:56|56=BuySide|10=058|108=30|8=FIX.4.2|9=112|35=A|49=BuySide|56=SellSide|34=1|52=20241015-15:00:00|108=30|10=178|
8=FIX.4.2|9=75|35=A|34=2|49=SellSide|52=20241015-23:21|56=BuySide|10=058|108=30|8=FIX.4.2|9=112|35=A|49=BuySide|56=SellSide|34=1|52=20241015-15:00:00|108=30|10=178|

8=FIX.4.2|9=75|35=A|34=2|49=SellSide|52=20241015-23:31|56=BuySide|10=058|108=30|