8=FIX.4.4|9=176|35=D|49=BUYER|56=SELLER|34=2|52=20231006-17:30:05|11=123456|21=1|55=IBM|54=1|38=100|40=2|44=150.25|10=072|
8=FIX.4.2|9=43|35=8|34=1|39=2|60=20241011-18:13|