8=FIX.4.2|9=112|35=A|34=1|49=CLIENT1|52=20231011-12:00:00.000|56=SERVER1|98=0|108=30|10=157|
8=FIX.4.2|9=77|35=A|34=2|49=SERVER1|52=20241012-16:48|56=CLIENT1|10=null|108=null|8=FIX.4.2|9=112|35=A|34=1|49=CLIENT1|52=20231011-12:00:00.000|56=SERVER1|98=0|108=30|10=157|
8=FIX.4.2|9=75|35=A|34=2|49=SERVER1|52=20241012-16:49|56=CLIENT1|10=null|108=30|8=FIX.4.2|9=112|35=A|34=1|49=CLIENT1|52=20231011-12:00:00.000|56=SERVER1|98=0|108=30|10=157|
8=FIX.4.2|9=74|35=A|34=2|49=SERVER1|52=20241012-17:17|56=CLIENT1|10=253|108=30|8=FIX.4.2|9=112|35=A|34=1|49=CLIENT1|52=20231011-12:00:00.000|56=SERVER1|98=0|108=30|10=157|
8=FIX.4.2|9=74|35=A|34=2|49=SERVER1|52=20241012-17:28|56=CLIENT1|10=253|108=30|