Received from client: 8=FIX.4.2|9=56|35=A|49=alexssxc|56=AXFix|34=1|52=20241101-13:30|108=30|10=190|
Sent from the server: 8=FIX.4.2|9=56|35=A|49=AXFix|56=alexssxc|34=2|52=20241101-13:30|108=30|10=213|
Received from client: 8=FIX.4.2|9=56|35=0|49=alexssxc|56=AXFix|34=1|52=20241101-13:31|108=30|10=191|
Sent from the server: 8=FIX.4.2|9=56|35=0|49=AXFix|56=alexssxc|34=2|52=20241101-13:31|108=30|10=197|
Received from client: 8=FIX.4.2|9=56|35=0|49=alexssxc|56=AXFix|34=1|52=20241101-13:31|108=30|10=191|
Sent from the server: 8=FIX.4.2|9=56|35=0|49=AXFix|56=alexssxc|34=2|52=20241101-13:31|108=30|10=197|
Received from client: 8=FIX.4.2|9=56|35=0|49=alexssxc|56=AXFix|34=1|52=20241101-13:32|108=30|10=192|
Sent from the server: 8=FIX.4.2|9=56|35=0|49=AXFix|56=alexssxc|34=2|52=20241101-13:32|108=30|10=198|
Received from client: 8=FIX.4.2|9=56|35=0|49=alexssxc|56=AXFix|34=1|52=20241101-13:32|108=30|10=192|
Sent from the server: 8=FIX.4.2|9=56|35=0|49=AXFix|56=alexssxc|34=2|52=20241101-13:32|108=30|10=198|
Received from client: 8=FIX.4.2|9=56|35=0|49=alexssxc|56=AXFix|34=1|52=20241101-13:33|108=30|10=193|
Sent from the server: 8=FIX.4.2|9=56|35=0|49=AXFix|56=alexssxc|34=2|52=20241101-13:33|108=30|10=199|
Received from client: 8=FIX.4.2|9=56|35=0|49=alexssxc|56=AXFix|34=1|52=20241101-13:33|108=30|10=193|
Sent from the server: 8=FIX.4.2|9=56|35=0|49=AXFix|56=alexssxc|34=2|52=20241101-13:33|108=30|10=199|
Received from client: 8=FIX.4.2|9=56|35=0|49=alexssxc|56=AXFix|34=1|52=20241101-13:34|108=30|10=194|
Sent from the server: 8=FIX.4.2|9=56|35=0|49=AXFix|56=alexssxc|34=2|52=20241101-13:34|108=30|10=200|
Received from client: 8=FIX.4.2|9=94|35=D|49=alexssxc|56=AXFix|34=1|52=20241101-13:34|10=194|11=112DD990|55=APPL|54=1|38=100|44=1000|58=0|
Sent from the server: 8=FIX.4.2|9=59|35=8|49=AXFix|56=alexssxc|34=2|52=20241101-13:34|108=|10=043|39=2|
Received from client: 8=FIX.4.2|9=56|35=0|49=alexssxc|56=AXFix|34=1|52=20241101-13:34|108=30|10=194|
Sent from the server: 8=FIX.4.2|9=56|35=0|49=AXFix|56=alexssxc|34=2|52=20241101-13:34|108=30|10=200|
