Received from client: 8=FIX.4.2|9=52|35=A|49=alex|56=AXFix|34=1|52=20241028-17:23|108=30|10=204|
Sent from the server: 8=FIX.4.2|9=52|35=A|49=AXFix|56=alex|34=2|52=20241028-17:23|108=30|10=030|
Received from client: 8=FIX.4.2|9=52|35=0|49=alex|56=AXFix|34=1|52=20241028-17:23|108=30|10=204|
Sent from the server: 8=FIX.4.2|9=50|35=0|49=AXFix|56=alex|34=2|52=20241028-17:23|108=|10=013|
Received from client: 8=FIX.4.2|9=52|35=0|49=alex|56=AXFix|34=1|52=20241028-17:24|108=30|10=205|
Sent from the server: 8=FIX.4.2|9=50|35=0|49=AXFix|56=alex|34=2|52=20241028-17:24|108=|10=014|
Received from client: 8=FIX.4.2|9=52|35=0|49=alex|56=AXFix|34=1|52=20241028-17:24|108=30|10=205|
Sent from the server: 8=FIX.4.2|9=50|35=0|49=AXFix|56=alex|34=2|52=20241028-17:24|108=|10=014|
Received from client: 8=FIX.4.2|9=52|35=0|49=alex|56=AXFix|34=1|52=20241028-17:25|108=30|10=206|
Sent from the server: 8=FIX.4.2|9=50|35=0|49=AXFix|56=alex|34=2|52=20241028-17:25|108=|10=015|
Received from client: 8=FIX.4.2|9=52|35=0|49=alex|56=AXFix|34=1|52=20241028-17:25|108=30|10=206|
Sent from the server: 8=FIX.4.2|9=50|35=0|49=AXFix|56=alex|34=2|52=20241028-17:25|108=|10=015|
