Received from client: 8=FIX.4.2|9=52|35=A|49=alex|56=AXFix|34=1|52=20241101-20:18|108=30|10=194|
Sent from the server: 8=FIX.4.2|9=52|35=A|49=AXFix|56=alex|34=2|52=20241101-20:18|108=30|10=020|
Received from client: 8=FIX.4.2|9=52|35=0|49=alex|56=AXFix|34=1|52=20241101-20:18|108=30|10=194|
Sent from the server: 8=FIX.4.2|9=52|35=0|49=AXFix|56=alex|34=2|52=20241101-20:18|108=30|10=003|
Received from client: 8=FIX.4.2|9=52|35=0|49=alex|56=AXFix|34=1|52=20241101-20:19|108=30|10=195|
Sent from the server: 8=FIX.4.2|9=52|35=0|49=AXFix|56=alex|34=2|52=20241101-20:19|108=30|10=004|
Received from client: 8=FIX.4.2|9=52|35=0|49=alex|56=AXFix|34=1|52=20241101-20:19|108=30|10=195|
Sent from the server: 8=FIX.4.2|9=52|35=0|49=AXFix|56=alex|34=2|52=20241101-20:19|108=30|10=004|
Received from client: 8=FIX.4.2|9=88|35=D|49=alex|56=AXFix|34=1|52=20241101-20:19|10=195|11=18290|55=APPL|54=1|38=1200|44=1900|58=0|
Sent from the server: 8=FIX.4.2|9=55|35=8|49=AXFix|56=alex|34=2|52=20241101-20:19|108=|10=239|39=2|
Received from client: 8=FIX.4.2|9=52|35=0|49=alex|56=AXFix|34=1|52=20241101-20:20|108=30|10=187|
Sent from the server: 8=FIX.4.2|9=52|35=0|49=AXFix|56=alex|34=2|52=20241101-20:20|108=30|10=252|
