8=FIX.4.2|9=112|35=A|49=BuySide|56=SellSide|34=1|52=20241015-15:00:00|108=30|10=178|8=FIX.4.2|9=75|35=A|49=SellSide|56=BuySide|34=2|52=20241016-17:42|108=30|10=058|8=FIX.4.2|9=112|35=A|49=BuySide|56=SellSide|34=1|52=20241015-15:00:00|108=30|10=178|8=FIX.4.2|9=75|35=A|49=SellSide|56=BuySide|34=2|52=20241016-17:45|108=30|10=058|8=FIX.4.2|9=112|35=A|49=BuySide|56=SellSide|34=1|52=20241015-15:00:00|108=30|10=178|8=FIX.4.2|9=75|35=A|49=SellSide|56=BuySide|34=2|52=20241017-23:22|108=30|10=058|8=FIX.4.2|9=112|35=A|49=BuySide|56=SellSide|34=1|52=20241015-15:00:00|108=30|10=178|8=FIX.4.2|9=75|35=A|49=SellSide|56=BuySide|34=2|52=20241017-23:23|108=30|10=058|8=FIX.4.2|9=112|35=A|49=BuySide|56=SellSide|34=1|52=20241015-15:00:00|108=30|10=178|8=FIX.4.2|9=75|35=A|49=SellSide|56=BuySide|34=2|52=20241017-23:23|108=30|10=058|8=FIX.4.2|9=112|35=A|49=BuySide|56=SellSide|34=1|52=20241015-15:00:00|108=30|10=178|8=FIX.4.2|9=75|35=A|49=SellSide|56=BuySide|34=2|52=20241017-23:24|108=30|10=058|8=FIX.4.2|9=112|35=A|49=BuySide|56=SellSide|34=1|52=20241015-15:00:00|108=30|10=178|8=FIX.4.2|9=75|35=A|49=SellSide|56=BuySide|34=2|52=20241017-23:24|108=30|10=058|8=FIX.4.2|9=112|35=A|49=BuySide|56=SellSide|34=1|52=20241015-15:00:00|108=30|10=178|8=FIX.4.2|9=75|35=A|49=SellSide|56=BuySide|34=2|52=20241017-23:25|108=30|10=058|8=FIX.4.2|9=112|35=A|49=BuySide|56=SellSide|34=1|52=20241015-15:00:00|108=30|10=178|8=FIX.4.2|9=75|35=A|49=SellSide|56=BuySide|34=2|52=20241017-23:25|108=30|10=058|8=FIX.4.2|9=112|35=A|49=BuySide|56=SellSide|34=1|52=20241015-15:00:00|108=30|10=178|8=FIX.4.2|9=75|35=A|49=SellSide|56=BuySide|34=2|52=20241017-23:25|108=30|10=058|8=FIX.4.2|9=112|35=A|49=BuySide|56=SellSide|34=1|52=20241015-15:00:00|108=30|10=178|8=FIX.4.2|9=75|35=A|49=SellSide|56=BuySide|34=2|52=20241017-23:26|108=30|10=058|8=FIX.4.2|9=112|35=A|49=BuySide|56=SellSide|34=1|52=20241015-15:00:00|108=30|10=178|8=FIX.4.2|9=75|35=A|49=SellSide|56=BuySide|34=2|52=20241017-23:26|108=30|10=058|8=FIX.4.2|9=112|35=A|49=BuySide|56=SellSide|34=1|52=20241015-15:00:00|108=30|10=178|8=FIX.4.2|9=75|35=A|49=SellSide|56=BuySide|34=2|52=20241017-23:27|108=30|10=058|8=FIX.4.2|9=112|35=A|49=BuySide|56=SellSide|34=1|52=20241015-15:00:00|108=30|10=178|8=FIX.4.2|9=75|35=A|49=SellSide|56=BuySide|34=2|52=20241020-19:35|108=30|10=058|8=FIX.4.2|9=45|35=A|49=alexx|56=AXFix|34=1|52=20241020-20:06|108=30|10=092|8=FIX.4.2|9=70|35=A|49=AXFix|56=alexx|34=2|52=20241020-20:06|108=30|10=139|8=FIX.4.2|9=45|35=A|49=alex|56=AXFix|34=1|52=20241021-20:02|108=30|10=089|8=FIX.4.2|9=69|35=A|49=AXFix|56=alex|34=2|52=20241021-20:02|108=30|10=016|8=FIX.4.2|9=45|35=A|49=Alex|56=AXFix|34=1|52=20241021-21:36|108=30|10=097|8=FIX.4.2|9=69|35=A|49=AXFix|56=Alex|34=2|52=20241021-21:36|108=30|10=248|8=FIX.4.2|9=45|35=A|49=alex|56=AXFix|34=1|52=20241021-21:48|108=30|10=100|8=FIX.4.2|9=69|35=A|49=AXFix|56=alex|34=2|52=20241021-21:48|108=30|10=027|8=FIX.4.2|9=45|35=A|49=alex|56=AXFix|34=1|52=20241021-21:49|108=30|10=101|8=FIX.4.2|9=69|35=A|49=AXFix|56=alex|34=2|52=20241021-21:49|108=30|10=028|