8=FIX.4.2|9=112|35=A|49=BuySide|56=SellSide|34=1|52=20241015-15:00:00|108=30|10=178|

8=FIX.4.2|9=75|35=A|49=SellSide|56=BuySide|34=2|52=20241016-14:01|108=30|10=058|