Received from client: 8=FIX.4.2|9=51|35=A|49=sad|56=AXFix|34=1|52=20241118-22:35|10=145|108=30|
Sent from the server: 8=FIX.4.2|9=51|35=A|49=AXFix|56=sad|34=2|52=20241118-22:35|108=30|10=170|
